:040159007F017E00A4
:10015D00EF1FAA0670011E4A600FE4FDEDC3940C5B
:09016D007480948050EA0D80F3C7
:010176002266
:09019200D28AD2AAD2AFD2B32264
:03001300020016D2
:10001600C0E0C083C082C0D075D000C000C002C09E
:0700260004C005C006C0077D
:10002D007508007F3C7E0012015D30B30302014470
:10003D009003E820B318D3E5829400E58394004043
:10004D000D120159E582158270E9158380E520B303
:10005D00030201129001F430B318D3E5829400E548
:10006D00839400400D120159E582158270E91583C4
:10007D0080E5E4FCECC39404748094804003020199
:10008D0012750F00C3E50F94087480948050729020
:10009D00003C20B318D3E5829400E5839400400D15
:1000AD00120159E582158270E9158380E59001F4FE
:1000BD0030B327D3E5829400E5839400401C1201F0
:1000CD00590508E582158270021583D3E508941E43
:1000DD007480948040DAD2AA805D74092CF8C00037
:1000ED00E6C313D000F6C3E50894087480948040ED
:1000FD000874092CF8E64480F6750800050F020017
:10010D00910C020081E50CF4650B702BE50B644539
:10011D00600BE50B64466005E50BB44704D2928095
:10012D0013E50B6444600BE50B64406005E50BB40F
:07013D004305C292750B306F
:10014400D007D006D005D004D002D000D0D0D082C1
:05015400D083D0E03271
:10017700759850758920758840758DFDD299D28EF6
:010187002255
:0A018800120192120177D29280FE5C
:03000000020003F8
:0C000300787FE4F6D8FD75810F020188BB
:00000001FF
